:100000000C945D000C9485000C9485000C94850084
:100010000C9485000C9485000C9485000C9485004C
:100020000C9485000C9485000C9485000C9485003C
:100030000C9485000C9485000C9485000C9485002C
:100040000C942F030C9485000C94FD020C94D702A1
:100050000C9485000C9485000C9485000C9485000C
:100060000C9485000C9485000000000024002700FB
:100070002A0000000000250028002B0004040404CE
:100080000404040402020202020203030303030342
:10009000010204081020408001020408102001021F
:1000A00004081020000000080002010000030407FB
:1000B0000000000000000000B90411241FBECFEFB3
:1000C000D8E0DEBFCDBF11E0A0E0B1E0EAE7FAE0A2
:1000D00002C005900D92AE35B107D9F722E0AEE52A
:1000E000B1E001C01D92A430B207E1F710E0CDE508
:1000F000D0E004C02197FE010E943005CC35D10725
:10010000C9F70E9479030C943B050C940000E6EAC1
:10011000F0E09491E2E9F0E02491EEE7F0E0E49180
:10012000EE2309F43CC0992339F1933091F038F46F
:100130009130A9F0923001F594B59F7D12C09730AF
:1001400091F09830A1F09430B9F4909180009F7DA7
:1001500003C0909180009F77909380000DC094B56C
:100160009F7794BD09C09091B0009F7703C0909194
:10017000B0009F7D9093B000F0E0EE0FFF1FEE58AF
:10018000FF4FA591B4919FB7F894811104C08C9151
:100190002095282302C0EC912E2B2C939FBF08950D
:1001A000CF92DF92EF92FF920F931F93CF93DF9343
:1001B0006C017A018B01C0E0D0E0CE15DF0581F043
:1001C000D8016D918D01D601ED91FC910190F081E6
:1001D000E02DC6010995892B11F02196EECF7E0105
:1001E000C701DF91CF911F910F91FF90EF90DF90AA
:1001F000CF900895089580E090E00895FC01538D1C
:10020000448D252F30E0842F90E0821B930B5417F0
:1002100010F0CF96089501970895FC01918D828D7D
:10022000981761F0828DDF01A80FB11D5D968C914A
:10023000928D9F5F9F73928F90E008958FEF9FEF55
:100240000895FC01918D828D981731F0828DE80F11
:10025000F11D858D90E008958FEF9FEF0895FC01CB
:10026000918D228D892F90E0805C9F4F821B910998
:100270008F739927089587E691E00E942F0121E06E
:10028000892B09F420E0822F0895FC01848DDF0181
:10029000A80FB11DA35ABF4F2C91848D90E00196F9
:1002A0008F739927848FA689B7892C93A089B189E8
:1002B0008C91837080648C93938D848D981306C089
:1002C0000288F389E02D80818F7D80830895EF92ED
:1002D000FF920F931F93CF93DF93EC0181E0888F00
:1002E0009B8D8C8D981305C0E889F989808185FDE7
:1002F00026C0F62E0B8D10E00F5F1F4F0F731127D6
:10030000E02E8C8DE8120CC00FB607FCFACFE889FE
:10031000F989808185FFF5CFCE010E944501F1CF9B
:100320008B8DFE01E80FF11DE35AFF4FF0829FB75E
:10033000F8940B8FEA89FB89808180620AC09FB79D
:10034000F894EE89FF896083E889F9898081837058
:10035000806480839FBF81E090E0DF91CF911F9107
:100360000F91FF90EF900895CF93DF93EC01888D6C
:100370008823C9F0EA89FB89808185FD05C0A889A9
:10038000B9898C9186FD0FC00FB607FCF5CF80812F
:1003900085FFF2CFA889B9898C9185FFEDCFCE0179
:1003A0000E944501E7CFDF91CF91089580E090E072
:1003B000892B29F00E943B0181110C9400000895C3
:1003C0008E3008F08E508770806480937C0080911E
:1003D0007A00806480937A0080917A0086FDFCCF59
:1003E000809178002091790090E0922B08953FB79A
:1003F000F8948091630190916401A0916501B0919E
:10040000660126B5A89B05C02F3F19F00196A11DD6
:10041000B11D3FBFBA2FA92F982F8827820F911D9A
:10042000A11DB11DBC01CD0142E0660F771F881FE1
:10043000991F4A95D1F708958F929F92AF92BF92DC
:10044000CF92DF92EF92FF926B017C010E94F70145
:100450004B015C01C114D104E104F104F1F00E94EC
:10046000F701DC01CB0188199909AA09BB09883E6B
:100470009340A105B10570F321E0C21AD108E1084B
:10048000F10888EE880E83E0981EA11CB11CC114EF
:10049000D104E104F10419F7DDCFFF90EF90DF9074
:1004A000CF90BF90AF909F908F9008950F931F9320
:1004B000CF93DF930AE010E0C0E0D0E08EE00E942E
:1004C000E001C817D9070CF4EC0161E070E080E0AE
:1004D00090E00E941C020150110981F7CE01DF91CA
:1004E000CF911F910F910895009769F0FC01019041
:1004F0000020E9F73197AF01481B590BBC0187E693
:1005000091E00C94D00080E090E008958F929F924B
:10051000AF92BF920F931F93CF93DF93CDB7DEB708
:10052000A1970FB6F894DEBF0FBECDBF19A242301F
:1005300008F44AE08E010F5D1F4F842E912CA12CF0
:10054000B12CA50194010E94FA04E62FB901CA0159
:1005500001501109EA3014F4E05D01C0E95CD801F2
:10056000EC93232B242B252B61F7C8010E947402E6
:10057000A1960FB6F894DEBF0FBECDBFDF91CF912D
:100580001F910F91BF90AF909F908F900895CF9340
:10059000DF930E947402EC0182E191E00E947402F8
:1005A0008C0F9D1FDF91CF9108950E9436051F92F9
:1005B0000F920FB60F9211242F933F934F935F9397
:1005C0006F937F938F939F93AF93BF93EF93FF931B
:1005D00087E691E00E944501FF91EF91BF91AF91B5
:1005E0009F918F917F916F915F914F913F912F914B
:1005F0000F900FBE0F901F9018951F920F920FB67D
:100600000F9211242F938F939F93EF93FF93E09179
:100610007701F09178018081E0917D01F0917E0178
:1006200082FD12C09081809180018F5F8F73209135
:100630008101821751F0E0918001F0E0E959FE4F0D
:10064000958F8093800101C08081FF91EF919F91F0
:100650008F912F910F900FBE0F901F9018951F92A2
:100660000F920FB60F9211242F933F938F939F9366
:10067000AF93BF9380915F0190916001A091610160
:10068000B091620130915E0123E0230F2D3720F4F9
:100690000196A11DB11D05C026E8230F0296A11DDC
:1006A000B11D20935E0180935F0190936001A09340
:1006B0006101B09362018091630190916401A09106
:1006C0006501B09166010196A11DB11D8093630182
:1006D00090936401A0936501B0936601BF91AF91BF
:1006E0009F918F913F912F910F900FBE0F901F9070
:1006F0001895789484B5826084BD84B5816084BD8A
:1007000085B5826085BD85B5816085BD80916E00AF
:10071000816080936E0010928100809181008260E0
:10072000809381008091810081608093810080911D
:1007300080008160809380008091B100846080930C
:10074000B1008091B00081608093B00080917A0008
:10075000846080937A0080917A00826080937A002E
:1007600080917A00816080937A0080917A0080681D
:1007700080937A001092C100E0917701F0917801A6
:1007800082E08083E0917301F09174011082E09126
:100790007501F09176018FEC808310927F01E091DA
:1007A0007B01F0917C0186E08083E0917901F091FA
:1007B0007A01808180618083E0917901F0917A01F2
:1007C000808188608083E0917901F0917A01808155
:1007D00080688083E0917901F0917A0180818F7D3A
:1007E0008083E2E9F0E02491EEE7F0E08491882351
:1007F00099F090E0880F991FFC01E859FF4FA591EF
:10080000B491FC01EE58FF4F859194918FB7F89405
:10081000EC91E22BEC938FBF84E6A82EB12C04E67A
:1008200010E0C0E0D0E08FE00E94E001C80FD91FC7
:100830006AE070E080E090E00E941C020150110923
:1008400091F7CE01B5010E94E604EB0185E191E04C
:100850000E94C7026E010D2E000CEE08FF08D7FFA4
:1008600010C06DE287E691E00E9467016627772756
:10087000CB016C197D098E099F094AE00E9486020E
:1008800007C04AE0C701B6010E948602E2971CF445
:1008900085E291E002C08CE291E00E94C70281E013
:1008A0000E94870080E00E9487000E9456028C010F
:1008B00088E391E00E94C7026801012E000CEE0857
:1008C000FF08F7FE0EC06DE287E691E00E94670127
:1008D00066277727CB016C197D098E099F094AE0AD
:1008E00003C04AE0C701B6010E94860282E191E09E
:1008F0000E94740281E00E9487000E945602EC016F
:1009000081E491E00E94C7026E010D2E000CEE08FA
:10091000FF08F7FE0EC06DE287E691E00E946701D6
:1009200066277727CB016C197D098E099F094AE05C
:1009300003C04AE0C701B6010E94860282E191E04D
:100940000E94740280E00E948700C01BD10B659753
:100950001CF08AE491E002C081E591E00E94C702A8
:1009600068EE73E080E090E00E941C020E94D601D5
:1009700056CFE7E6F1E01382128288EE93E0A0E022
:10098000B0E084839583A683B78384E091E091836C
:10099000808385EC90E09587848784EC90E097874E
:1009A000868780EC90E0918B808B81EC90E0938B3C
:1009B000828B82EC90E0958B848B86EC90E0978B19
:1009C000868B118E128E138E148E089597FB072E30
:1009D00016F4009407D077FD09D00E941C0507FC8F
:1009E00005D03EF4909581959F4F0895709561953F
:1009F0007F4F0895A1E21A2EAA1BBB1BFD010DC05B
:100A0000AA1FBB1FEE1FFF1FA217B307E407F507BE
:100A100020F0A21BB30BE40BF50B661F771F881F9A
:100A2000991F1A9469F760957095809590959B0130
:100A3000AC01BD01CF010895AA1BBB1B51E107C04A
:100A4000AA1FBB1FA617B70710F0A61BB70B881F5E
:100A5000991F5A95A9F780959095BC01CD010895ED
:100A6000EE0FFF1F0590F491E02D099481E090E0D6
:0A0A7000F8940C943B05F894FFCFB6
:100A7A00000000006701D000FE00B4012F010D0143
:100A8A0021010D0A004176657261676520776174FC
:100A9A0065723A2000446F72737421004765656E6F
:100AAA0020646F7273742E004952207569743A205B
:100ABA000049522061616E3A20004F6E67657221CB
:0E0ACA00004765656E206F6E6765722E000036
:00000001FF
